:1000000073EF04F00000000000EF00F000000000BB
:0A0010000000000000000000F3D71C
:06001C0095928392120090
:10002200376AFF0E386E38520FE0000E83B2010EAF
:10003200016E375205E0015203E1010E006E05D058
:0C00420001C037F03806EFD7006A12004A
:10004E00010E376E800E375C06E283A202D0378E29
:0E005E0001D0372AF7D7379E37C000F01200C6
:04006C009582120067
:10007000220E0C6E086A096A0A6A0B6A0C06D8B46A
:100080001FD0D8900B320A320932083203320232C2
:1000900001320032D8A0F2D70C06D8B409D00450EF
:1000A00008260550092206500A2207500B22EAD7DB
:1000B000045008260550092206500A2207500B2238
:0200C00012002C
:1000C200326AD3DFC3DF005203E132C000F014D042
:1000D200316A800E315C0BE283B004D083B202D06D
:1000E200010E326E325201E002D0312AF2D7325280
:0A00F20001E193DF32C000F01200BC
:1000FC00400E006E1F0E016E000E026E036E12009B
:10010C003106310631C001F031060150000803E21E
:10011C0000000000F7D70000000000000000000005
:02012C001200BF
:10012E00086A096A100E0C6E01340836093604503E
:10013E00085E0550D8A0053C095ED8B007D0045023
:10014E0008260550D8B0053C0926D8900036013651
:06015E000C2EEAD712008E
:10016400326A3150000A03E132C000F059D024A2AF
:1001740021D0315068081EE27E0E315C1BE2315002
:10018400770A18E0690E315C006E016A000E015AAC
:10019400EE0E0024F66E0A0E0120F76E000EF86EC5
:1001A400000E01BEFF0EF8220900F5CF00F000C0DA
:1001B40032F036D0310624AA19D06B0E3124F66EF3
:1001C4000A0EF76E000EF722000EF86E000EF822EB
:1001D4000900F5CF32F024A408D03250400805E2DB
:1001E4005B0E325C02E2200E322618D0E80E312477
:1001F400F66E090EF76E000EF722000EF86E000E72
:10020400F8220900F5CF32F024A408D03250600857
:1002140005E27B0E325C02E2200E325E32C000F058
:020224001200C6
:10022600336A010E346E356A366A010E236E235226
:100236000BE0F4DE005207E083A003D02350331214
:10024600347023362390F3D7E9DE005204E0000E23
:1002560083B0010E356EE2DE005204E0000E83B07C
:10026600010E366ED8DE3450351804E13650000AD9
:1002760001E001D0336A31C0E1FF32C0E2FF33C092
:04028600E6FF12007D
:10028A000B6A0A6A096A086A0E6A03340836045055
:10029A00085E0550D8A0053C095E0650D8A0063C69
:1002AA000A5E0750D8A0073C0B5EE86AD8A0010E88
:1002BA000E5E0336070E0C6E0334083609360A360C
:1002CA000B360E36045003A012D0085E0550D8A093
:1002DA00053C095E0650D8A0063C0A5E0750D8A025
:1002EA00073C0B5EE86AD8A0010E0E5E11D0082604
:1002FA000550D8B0053C09260650D8B0063C0A2657
:10030A000750D8B0073C0B26E86AD8B0010E0E2673
:10031A0003360C2ED1D70234083609360A360B3684
:10032A000E36045003A012D0085E0550D8A0053C32
:10033A00095E0650D8A0063C0A5E0750D8A0073CC2
:10034A000B5EE86AD8A0010E0E5E11D00826055091
:10035A00D8B0053C09260650D8B0063C0A260750F4
:10036A00D8B0073C0B26E86AD8B0010E0E26023632
:10037A00070E0C6E0234083609360A360B360E366C
:10038A00045002A012D0085E0550D8A0053C095EB0
:10039A000650D8A0063C0A5E0750D8A0073C0B5E60
:1003AA00E86AD8A0010E0E5E11D008260550D8B012
:1003BA00053C09260650D8B0063C0A260750D8B094
:1003CA00073C0B26E86AD8B0010E0E2602360C2E20
:1003DA00D1D70134083609360A360B360E360450A0
:1003EA0002A012D0085E0550D8A0053C095E06504E
:1003FA00D8A0063C0A5E0750D8A0073C0B5EE86A04
:10040A00D8A0010E0E5E11D008260550D8B0053CC2
:10041A0009260650D8B0063C0A260750D8B0073C31
:10042A000B26E86AD8B0010E0E260136070E0C6EAE
:10043A000134083609360A360B360E36045001A046
:10044A0012D0085E0550D8A0053C095E0650D8A017
:10045A00063C0A5E0750D8A0073C0B5EE86AD8A0A3
:10046A00010E0E5E11D008260550D8B0053C0926AB
:10047A000650D8B0063C0A260750D8B0073C0B26CF
:10048A00E86AD8B0010E0E2601360C2ED1D70034F8
:10049A00083609360A360B360E36045001A012D039
:1004AA00085E0550D8A0053C095E0650D8A0063C57
:1004BA000A5E0750D8A0073C0B5EE86AD8A0010E76
:1004CA000E5E11D008260550D8B0053C0926065004
:1004DA00D8B0063C0A260750D8B0073C0B26E86A73
:1004EA00D8B0010E0E260036070E0C6E0034083600
:1004FA0009360A360B360E36045000A012D0085EB2
:10050A000550D8A0053C095E0650D8A0063C0A5EF4
:10051A000750D8A0073C0B5EE86AD8A0010E0E5E11
:10052A0011D008260550D8B0053C09260650D8B087
:10053A00063C0A260750D8B0073C0B26E86AD8B012
:10054A00010E0E2600360C2ED1D700B00ED0045064
:10055A0008260550D8B0053C09260650D8B0063CF6
:0C056A000A260750D8B0073C0B261200F0
:1005760025C01EF026C01FF027C001F0010E006E38
:10058600015004E000360090FF0FFBD700C020F0BA
:10059600001E00C021F0120E2524E96E000E262052
:1005A600EA6E0050EF16120EE95E0050EF161200CA
:0805B60095809582246A120071
:1005BE000900F5CFE6FF0006FBE10106F9E11200A6
:1005CE0096DDE80E046E030E056E000E066E076EC7
:1005DE0048DD00C02DF001C02EF002C02FF003C088
:1005EE0030F025C004F026C005F0000E066E076E32
:1005FE0045DE00C02DF001C02EF002C02FF003C06A
:10060E0030F000C005F001C006F002C007F003C0D4
:10061E0008F00832073206320532089E08320732D9
:10062E0006320532089E05C000F006C001F007C074
:10063E0002F008C003F00332023201320032039E90
:10064E0000C029F001C02AF052DD27C004F028C0F6
:10065E0005F0000E066E076E04DD29C009F02AC0F3
:10066E000AF0000E0B6E0C6E030E086E09C004F03D
:10067E000AC005F00BC006F00CC007F0085007E0EA
:10068E0004360490053606360736FF0FF8D7F6DD2A
:10069E0000C02DF001C02EF002C02FF003C030F0CC
:1006AE000A0E046E000E056E29C000F02AC001F07D
:1006BE0037DD00C029F001C02AF0000E015C02E116
:1006CE00030E005C01E241D01EC0E9FF1FC0EAFF2D
:1006DE003050000808E12F50000805E12E500008A8
:1006EE0002E12D5000082FE22050EF122A520DE0A9
:1006FE002B6A2C6A000E2C5C02E12A502B5C05E260
:10070E00316AFDDC2B4A2C2AF5D729C031F0F7DCF3
:10071E002150EF162A520DE02B6A2C6A000E2C5C2B
:10072E0002E12A502B5C05E2316AE9DC2B4A2C2AC5
:10073E00F5D729C031F0E3DC010E2D5E000E2E5AE6
:0C074E002F5A305AC5D72150EF16120068
:10075A000B6A0A6A096A00500402F4CF09F0F3CF5F
:10076A0008F001500502F4CF0BF0F3CF0AF0005065
:10077A000502F3500926F4500A22E86A0B220150B6
:10078A000402F3500926F4500A22E86A0B2208C030
:10079A0000F009C001F00AC002F00BC003F0120019
:1007AA00010E2D6E010E2E6E2C6A226A85DC005215
:1007BA0002E1006A92D02B0E316E000E326E2EDDEF
:1007CA002B50F00A0BE12E6A77DC005201E1FCD7CC
:1007DA002B0E316E000E326E21DD2ED02B50E00A28
:1007EA0019E16ADC005201E1FCD72B0E316E000ED2
:1007FA00326E14DD2B50F00A0AE12E6A5DDC0052DB
:10080A0001E1FCD72B0E316E000E326E07DD010EB0
:10081A00226E12D02B50770A0AE1010E2D6E2E524B
:10082A0005E024B202D0248201D0249205D02B50B4
:10083A00E10A02E1E00E2C6E22520AE02B50120A63
:10084A0002E1DF0E2C6E2B507C0A02E1DF0E2C6EC9
:10085A002B50120A04E02B50590A01E007D0010E6E
:10086A002D6E2E5202E0248A01D0249A24B205D099
:10087A002B50730A02E1006A30D02C50000A06E1BC
:10088A002D6A2BC031F069DC00C02CF02C50E10A33
:10089A0009E1010E2D6E2E5205E024B402D0248403
:1008AA0001D024942C50C80804E2010E2D6EC80E03
:1008BA002C5E25C0E1FF26C0E2FF2CC0E6FF27C060
:1008CA00E1FF28C0E2FF2DC0E6FF29C0E1FF2AC0F0
:0C08DA00E2FF2EC0E6FF010E006E1200CF
:1008E600156A166A176A64DE020E0B6E040E0C6E2B
:1008F600BA0E0D6E0D2EFED70C2EFCD70B2EFAD788
:1009060000001C6A1D6A830E256E0F0E266E020EEF
:10091600276E2EDE160E256E000E266E170E276E1D
:10092600000E286E150E296E000E2A6E3BDF005251
:100936001DE0175201E053D0155207E01A6A1B6AF0
:10094600010E186E000E196E11D0186A196A0AD0B7
:10095600E80E1C6E030E1D6E09D02C0E1C6E010EC9
:100966001D6E04D01650610AF3E0F7D7000E191871
:1009760002E1010E18180FE11A4A1B2A020E0B6E2D
:10098600040E0C6EBA0E0D6E0D2EFED70C2EFCD775
:100996000B2EFAD70000000E1D1802E1000E1C18DF
:1009A60014E01CC025F01DC026F01AC000F01BC0C4
:1009B60001F0640E046E000E056ECCDE00C027F05A
:1009C60001C028F001DE1C6A1D6A030E0C6E970E2C
:1009D6000D6E0D2EFED70C2EFCD7000000009AD708
:0209E600FFD739
:1009E800D100CDCBC9CAD4D3D2D0CECCEB600000D5
:1009F800DEDD00DC71310000007A73617732DB00E4
:100A0800637864653433DB002076667472350000E1
:100A18006E62686779360000006D6A7537380000C5
:100A28002C6B696F303900002E2F6C3B702D000045
:100A38000027005B3D0000E1DDD55D005C000000A3
:100A48000000000000D80000E200E6E3000000D942
:100A5800DAE935E7E8EAE5D32BD72D2AD6E4000012
:030A68000000CFBC
:100A6B00D100CDCBC9CAD400D2D0CECCEB7E000006
:100A7B00DEDD00DC51210000005A53415740DB0002
:100A8B00435844452423DB0020564654522500008E
:100A9B004E424847595E0000004D4A55262A000039
:100AAB003C4B494F292800003E3F4C3A505F000019
:100ABB000022007B2B0000E1DDD57D007C000000D7
:100ACB000000000000D80000E200E6E3000000D9BF
:100ADB00DAE935E7E8EAE5D32BD72D2AD6E400008F
:030AEB000000CF39
:100AEE0031003437000000302E3235363800000029
:050AFE002B332D2A3905
:020000040030CA
:0D000100021F1EFF8381FF0FC00FE00F40A4
:00000001FF
